:03000000020006F5
:03005F0002000399
:0300030002006296
:2000620075A0001200A19001F41201627582851200C090001212016290019A75F080120134
:20008200099001F41201627582C31200C090001212016290019E75F08012010980C822908E
:2000A20000641201627582381200C075820C1200C07582011200C07582061200C0228582CD
:2000C200A0C280C281D282900005120162C282900005120162228582A0D280C281D282900B
:2000E2000005120162C28290000512016222AE828EA0D280C281D282900005120162C2827F
:2001020090000512016222AD82AE83AFF07B007C00EB2DF8EC3EF98F02888289838AF01255
:20012200017AFA603A8AA0D280C281D282900005C007C006C005C004C003120162C28290E4
:200142000005120162D003D004D005D006D0070BBB00010CC3EB940FEC6480948040B222DE
:18016200AE82AF83EE4F600F7D05ED14FCFD70FA1EBEFF011F80ED2207
:0E019A004E504D00323032324F43543130005F
:06003500E4787FF6D8FD1F
:200013007900E94400601B7A009001A8780175A000E493F2A308B8000205A0D9F4DAF275EA
:02003300A0FF2C
:20003B007800E84400600A790175A000E4F309D8FC7800E84400600C7900900001E4F0A3C3
:04005B00D8FCD9FAFA
:0D000600758107120196E582600302000378
:1C017A0020F71430F6148883A88220F507E6A88375830022E280F7E49322E02294
:04019600758200224C
:00000001FF
