:03000000020006F5
:03005F0002000399
:0300030002006296
:2000620075A00012009B9001F41200837582C01200BA9000121200837582311200D280E676
:2000820022AE82AF83EE4F600F7D05ED14FCFD70FA1EBEFF011F80ED2290006412008375C0
:2000A20082381200BA75820C1200BA7582011200BA7582061200BA228582A0C280C281D23C
:2000C20082900005120083C282900005120083228582A0D280C281D282900005120083C266
:0800E200829000051200832248
:06003500E4787FF6D8FD1F
:200013007900E94400601B7A009000EE780175A000E493F2A308B8000205A0D9F4DAF275A5
:02003300A0FF2C
:20003B007800E84400600A790175A000E4F309D8FC7800E84400600C7900900001E4F0A3C3
:04005B00D8FCD9FAFA
:0D0006007581071200EAE582600302000325
:0400EA0075820022F9
:00000001FF
