:03000000020006F5
:03005F0002000399
:0300030002006296
:2000620075A0001201A49001F412018C7582851201C390001212018C75824E1201DB900137
:20008200F412018C7582861201C390001212018C7582501201DB9001F412018C758287124E
:2000A20001C390001212018C75824D1201DB9001F412018C7582C31201C390001212018C12
:2000C2007582311201DB9001F412018C7582C41201C390001212018C7582301201DB90016C
:2000E200F412018C7582C51201C390001212018C75824F1201DB9001F412018C7582C61271
:2001020001C390001212018C7582431201DB9001F412018C7582C71201C390001212018CB7
:200122007582541201DB9001F412018C7582C81201C390001212018C7582321201DB9001E2
:20014200F412018C7582C91201C390001212018C7582301201DB9001F412018C7582CA1227
:2001620001C390001212018C7582321201DB9001F412018C7582CB1201C390001212018C64
:200182007582301201DB02006822AE82AF83EE4F600F7D05ED14FCFD70FA1EBEFF011F804D
:2001A200ED2290006412018C7582381201C375820C1201C37582011201C37582061201C31C
:2001C200228582A0C280C281D28290000512018CC28290000512018C228582A0D280C28171
:1101E200D28290000512018CC28290000512018C22EA
:06003500E4787FF6D8FD1F
:200013007900E94400601B7A009001F7780175A000E493F2A308B8000205A0D9F4DAF2759B
:02003300A0FF2C
:20003B007800E84400600A790175A000E4F309D8FC7800E84400600C7900900001E4F0A3C3
:04005B00D8FCD9FAFA
:0D0006007581071201F3E58260030200031B
:0401F30075820022EF
:00000001FF
