:03000000020200F9
:0F02000075A000512B512B5134512B512B512BE9
:0F020F0074855145512B9003005165512B74C3D9
:0F021E005145512B9003045165512B80FE780AF6
:0F022D0079FFD9FED8FA2274385145740C514527
:0F023C00740151457406514522F5A0C280C2815C
:0F024B00D282512BC282512B22F5A0D280C281C8
:0F025A00D282512BC282512B512B22C0E0E49350
:0A02690060055154A380F7D0E02295
:100300004E504D003130204F4354203230323200B5
:00000001FF
