:03000000020006F5
:03005F0002000399
:0300030002006296
:2000620075901012008075902012008075904012008075908012008012008080E3227E009D
:200082007F007CFF7D00EC24FFFAED34FFFB8A048B05EA4B70F00EBE00010FC3EE94FFEF01
:0700A2006480948040DC2221
:06003500E4787FF6D8FD1F
:200013007900E94400601B7A009000AD780175A000E493F2A308B8000205A0D9F4DAF275E6
:02003300A0FF2C
:20003B007800E84400600A790175A000E4F309D8FC7800E84400600C7900900001E4F0A3C3
:04005B00D8FCD9FAFA
:0D0006007581071200A9E582600302000366
:0400A900758200223A
:00000001FF
