:03000000020006F5
:03005F0002000399
:0300030002006296
:200062007590F012007175900012007180F2227E007F007CFF7D00EC24FFFAED34FFFB8A47
:18008200048B05EA4B70F00EBE00010FC3EE94FFEF6480948040DC22F8
:06003500E4787FF6D8FD1F
:200013007900E94400601B7A0090009E780175A000E493F2A308B8000205A0D9F4DAF275F5
:02003300A0FF2C
:20003B007800E84400600A790175A000E4F309D8FC7800E84400600C7900900001E4F0A3C3
:04005B00D8FCD9FAFA
:0D00060075810712009AE582600302000375
:04009A007582002249
:00000001FF
