:03000000020006F5
:03005F0002000399
:0300030002006296
:2000620075901012007175900012009A80F2227E007F007CFF7D00EC24FFFAED34FFFB8AFE
:20008200048B05EA4B70F00EBE00010FC3EE94FFEF6480948040DC227E007F007C967D0064
:2000A200EC24FFFAED34FFFB8A048B05EA4B70F00EBE00010FC3EE9496EF6480948040DCAD
:0100C200221B
:06003500E4787FF6D8FD1F
:200013007900E94400601B7A009000C7780175A000E493F2A308B8000205A0D9F4DAF275CC
:02003300A0FF2C
:20003B007800E84400600A790175A000E4F309D8FC7800E84400600C7900900001E4F0A3C3
:04005B00D8FCD9FAFA
:0D0006007581071200C3E58260030200034C
:0400C3007582002220
:00000001FF
